01TESTE  01COBRANCA       15229000263478000000iBolt                         001BANCODOBRASIL  1212160000003                      2953352                                                                                                                                                                                                                                                                  000001
702073757840001811522900026347829533520000000000000000000000012295335200000433990000       01-90000000000001701000004283312121600000000007020010000 13N091216000000000000000001212160000000000000000000000000000000000000000207223657000167IBOLT SYS USUARIO DE TESTE 123                                                              80250220                                                            000002
702073757840001811522900026347829533520000000000000000000000011295335200000433980000       01-90000000000001701000004283212121600000000083070010000 13N091216000000000000000001212160000000000000000000000000000000000000000207223657000167IBOLT SYS USUARIO DE TESTE 123                                                              80250220                                                            000003
702073757840001811522900026347829533520000000000000000000000010295335200000433690000       01-90000000000001701000004283012121600000000252650010000 13N091216000000000000000001212160000000000000000000000000000000000000000100012345678901iBolt Tecnologia Teste                                                                      80330310                                                            000004
702073757840001811522900026347829533520000000000000000000000009295335200000000270000       01-90000000000001701000000000112121600000000252650010000 13N091216000000000000000001212160000000000000000000000000000000000000000100012345678901iBolt Tecnologia Teste                                                                      80330310                                                            000005
503                                                                                                                                                                                                                                                                                                                                                                                                       000006